:100AEC00E4F5AF75AE10F50BF50AF509750840F590
:100AFC000C750D327FE37EA57DBD7C40AB0BAA0A45
:100B0C00A909A8081209A6600E400C750BE3750A1A
:100B1C00A57509BD750840D3E50D9464E50C64809A
:100B2C0094804006750C00750D647BAA7A3379C2EB
:100B3C007833AF0BAE0AAD09AC08120909E4FBFA25
:100B4C00797A7844120909120A5D8FB3EEF5B4ACC8
:100B5C000CAD0DEC120A247B0A7AD77923783C125F
:100B6C000800AB0BAA0AA909A8081208007BAA7AEC
:100B7C003379C27833120909E4FBFA797A78441292
:0C0B8C000909120A5D8FB1EEF5B280FE7F
:10080000EC4D6011E8497017ED33EC3304600DE4F2
:10081000FCFFFEFD22E933E8330470F8020AC91236
:100820000A9458046009E4CC248150062850090237
:100830000AD3284003020AD0C0E0EB4A7044B980D2
:1008400006D0E0FB020ABFEF4E701CBD8008EBFF34
:10085000EAFEE9FD80EBE98DF0A4FEE5F00208E98F
:10086000E9CDF9EAFEEBFFEF89F0A4FCE5F0CE89D3
:10087000F0A42EFFE435F0CD89F0A42DFEE435F090
:100880008067EF4E7005BD80D780C3EF8BF0A4ACBE
:10089000F0EE8BF0A42CFCE435F0F8EF8AF0A42CF9
:1008A000E5F038FCE433CB8DF0A42CFCE5F03BF80C
:1008B000EE8AF0A42CFCE5F038F8E433CF89F0A4FC
:1008C0002CFCE5F038CF3400CE89F0A42FFFE5F002
:1008D0003EFEE433C98DF0A42EFEE5F039CD8AF05A
:1008E000A42FFFE5F03EFEE43DFD33D0E0FB5007D2
:1008F0000BBB000F020AD3EC2CFCEF33FFEE33FEF0
:06090000ED33FD020AAB1D
:10090600020AD3EC5D046005E859047003020AC9C3
:10091600120A94580460F6EC4860F2EC7004FDFE8E
:10092600FF22C860DB2481C85009C39860025006C4
:10093600020AD09850CAF582E9294B4A7005AB8263
:10094600020ABF75F0007C1A7880C3EF9BEE9AED21
:1009560099400DC3EF9BFFEE9AFEED99FDE842F03C
:10096600DC23ACF0D0E0FFD0E0FED0E0FDAB82208F
:10097600E7101BEB60BAEC2CFCEF33FFEE33FEED19
:1009860033FD020AABE803F830E705C0F075F00066
:10099600EF2FFFEE33FEED33FD40B830E7C280AAFD
:1009A60074F8CC6480CCC86480C8F58204604FC3F8
:1009B600EB9FF5F0EA9E42F0E99D42F0E89C45F097
:1009C600603C501DE5825FFFE582D313CB5BCBF421
:1009D6002B5582FB50280ABA002409B9002008804A
:1009E6001DE5825BFBE582D313CF5FCFF4C3132FE4
:1009F6005582FF50090EBE00050DBD00010CC3EB6C
:100A06009FF5F0EA9E42F0E99D42F0E89C45F060D1
:090A160007CC4820E701B3EC22F3
:100A1F0075F020800E75F010800575F0087D007E52
:100A2F00007F003392D530D503120ADEEC3340102D
:100A3F00EF33FFEE33FEED33FDEC33FCD5F0ED225B
:0E0A4F00E5F0247EA2D513CC92E7CDCEFF2297
:100A5D00EDD2E7CD33EC3392D524814006E4FFFE91
:100A6D00FDFC22FCE4CFCECDCC24E0501174FF80F0
:100A7D00EDC3CC13CCCD13CDCE13CECF13CF04708D
:070A8D00F030D5DE020ADEA5
:100A9400E9D2E7C933E833F892D5EDD2E7CD33ECA8
:070AA40033FC5002B2D52221
:100AAB00EC30E7100FBF000C0EBE00080DBD0004AC
:100ABB000BEB6014A2D5EB13FCED92E7FD2274FF58
:100ACB00FCFDFEFF22E480F8A2D574FF13FC7D80B1
:030ADB00E480EFC5
:03000000020B9858
:0C0B9800787FE4F6D8FD75810D020AECB0
:0E0ADE00C3E49FFFE49EFEE49DFDE49CFC2229
:00000001FF
